:04000000C4EF00F059
:1000080000C01DF001C01CF002C01BF003C01AF0B4
:1000180004C019F005C018F006C017F007C016F0A4
:1000280008C015F0F2A207D0E80E206E030E216E6C
:10003800010E1E6EF292F0A007D0FA0E206E000E8E
:10004800216E010E1E6EF090F2A436D01E5208E00A
:100058001F2A1F500908D8A01F6A1FC02CF06FD88C
:1000680020C000F021C001F00036009001360036B3
:1000780000900136003600900136000E056E000E25
:10008800066E010E076E000E086E0050055E0150E8
:10009800065A000E075A085A06C000F007C001F0B9
:1000A80008C002F0000E08BEFF0E036E00C0D7FFA6
:1000B800FF0E0514D66EF2941DC000F01CC001F0AE
:1000C8001BC002F01AC003F019C004F018C005F0F4
:0E00D80017C006F016C007F015C008F01100A2
:1000E600870ED56E20C000F021C001F000360090CA
:1000F6000136003600900136003600900136000EBB
:10010600056E000E066E010E076E000E086E00509C
:10011600055E0150065A000E075A085A06C000F03E
:1001260007C001F008C002F0000E08BEFF0E036E05
:1001360000C0D7FFFF0E0514D66EF294F28A1200A5
:10014600220EE96E000EEA6E2C50E926D8B0EA2A95
:06015600EECF83FF120052
:10015C000F0EC16E93809382956A836AF18CF18A3B
:0C016C00F292F288F090F086F28E120001
:100178000900F5CFE6FF0006FBE10106F9E11200F0
:100188001E6A1F6AE80E206E030E216E6F0E226E25
:100198003F0E236E060E246E5B0E256E4F0E266EE6
:1001A800660E276E6D0E286E7D0E296E070E2A6E5E
:0C01B8007F0E2B6ECFDF93DFFFD7FFD749
:020000040030CA
:0E000000000C1F1EFF8381FF0FC00FE00F409A
:00000001FF
